{
    "_format": "hh-sol-artifact-1",
    "contractName": "Domains",
    "sourceName": "contracts/Domains.sol",
    "abi": [
        {
            "inputs": [
                {
                    "internalType": "string",
                    "name": "_tld",
                    "type": "string"
                }
            ],
            "stateMutability": "payable",
            "type": "constructor"
        },
        {
            "anonymous": false,
            "inputs": [
                {
                    "indexed": true,
                    "internalType": "address",
                    "name": "owner",
                    "type": "address"
                },
                {
                    "indexed": true,
                    "internalType": "address",
                    "name": "approved",
                    "type": "address"
                },
                {
                    "indexed": true,
                    "internalType": "uint256",
                    "name": "tokenId",
                    "type": "uint256"
                }
            ],
            "name": "Approval",
            "type": "event"
        },
        {
            "anonymous": false,
            "inputs": [
                {
                    "indexed": true,
                    "internalType": "address",
                    "name": "owner",
                    "type": "address"
                },
                {
                    "indexed": true,
                    "internalType": "address",
                    "name": "operator",
                    "type": "address"
                },
                {
                    "indexed": false,
                    "internalType": "bool",
                    "name": "approved",
                    "type": "bool"
                }
            ],
            "name": "ApprovalForAll",
            "type": "event"
        },
        {
            "anonymous": false,
            "inputs": [
                {
                    "indexed": true,
                    "internalType": "address",
                    "name": "from",
                    "type": "address"
                },
                {
                    "indexed": true,
                    "internalType": "address",
                    "name": "to",
                    "type": "address"
                },
                {
                    "indexed": true,
                    "internalType": "uint256",
                    "name": "tokenId",
                    "type": "uint256"
                }
            ],
            "name": "Transfer",
            "type": "event"
        },
        {
            "inputs": [
                {
                    "internalType": "address",
                    "name": "to",
                    "type": "address"
                },
                {
                    "internalType": "uint256",
                    "name": "tokenId",
                    "type": "uint256"
                }
            ],
            "name": "approve",
            "outputs": [],
            "stateMutability": "nonpayable",
            "type": "function"
        },
        {
            "inputs": [
                {
                    "internalType": "address",
                    "name": "owner",
                    "type": "address"
                }
            ],
            "name": "balanceOf",
            "outputs": [
                {
                    "internalType": "uint256",
                    "name": "",
                    "type": "uint256"
                }
            ],
            "stateMutability": "view",
            "type": "function"
        },
        {
            "inputs": [
                {
                    "internalType": "string",
                    "name": "",
                    "type": "string"
                }
            ],
            "name": "domains",
            "outputs": [
                {
                    "internalType": "address",
                    "name": "",
                    "type": "address"
                }
            ],
            "stateMutability": "view",
            "type": "function"
        },
        {
            "inputs": [
                {
                    "internalType": "string",
                    "name": "name",
                    "type": "string"
                }
            ],
            "name": "getAddress",
            "outputs": [
                {
                    "internalType": "address",
                    "name": "",
                    "type": "address"
                }
            ],
            "stateMutability": "view",
            "type": "function"
        },
        {
            "inputs": [
                {
                    "internalType": "uint256",
                    "name": "tokenId",
                    "type": "uint256"
                }
            ],
            "name": "getApproved",
            "outputs": [
                {
                    "internalType": "address",
                    "name": "",
                    "type": "address"
                }
            ],
            "stateMutability": "view",
            "type": "function"
        },
        {
            "inputs": [
                {
                    "internalType": "string",
                    "name": "name",
                    "type": "string"
                }
            ],
            "name": "getRecord",
            "outputs": [
                {
                    "internalType": "string",
                    "name": "",
                    "type": "string"
                }
            ],
            "stateMutability": "view",
            "type": "function"
        },
        {
            "inputs": [
                {
                    "internalType": "address",
                    "name": "owner",
                    "type": "address"
                },
                {
                    "internalType": "address",
                    "name": "operator",
                    "type": "address"
                }
            ],
            "name": "isApprovedForAll",
            "outputs": [
                {
                    "internalType": "bool",
                    "name": "",
                    "type": "bool"
                }
            ],
            "stateMutability": "view",
            "type": "function"
        },
        {
            "inputs": [],
            "name": "name",
            "outputs": [
                {
                    "internalType": "string",
                    "name": "",
                    "type": "string"
                }
            ],
            "stateMutability": "view",
            "type": "function"
        },
        {
            "inputs": [
                {
                    "internalType": "uint256",
                    "name": "tokenId",
                    "type": "uint256"
                }
            ],
            "name": "ownerOf",
            "outputs": [
                {
                    "internalType": "address",
                    "name": "",
                    "type": "address"
                }
            ],
            "stateMutability": "view",
            "type": "function"
        },
        {
            "inputs": [
                {
                    "internalType": "string",
                    "name": "name",
                    "type": "string"
                }
            ],
            "name": "price",
            "outputs": [
                {
                    "internalType": "uint256",
                    "name": "",
                    "type": "uint256"
                }
            ],
            "stateMutability": "pure",
            "type": "function"
        },
        {
            "inputs": [
                {
                    "internalType": "string",
                    "name": "",
                    "type": "string"
                }
            ],
            "name": "records",
            "outputs": [
                {
                    "internalType": "string",
                    "name": "",
                    "type": "string"
                }
            ],
            "stateMutability": "view",
            "type": "function"
        },
        {
            "inputs": [
                {
                    "internalType": "string",
                    "name": "name",
                    "type": "string"
                }
            ],
            "name": "register",
            "outputs": [],
            "stateMutability": "payable",
            "type": "function"
        },
        {
            "inputs": [
                {
                    "internalType": "address",
                    "name": "from",
                    "type": "address"
                },
                {
                    "internalType": "address",
                    "name": "to",
                    "type": "address"
                },
                {
                    "internalType": "uint256",
                    "name": "tokenId",
                    "type": "uint256"
                }
            ],
            "name": "safeTransferFrom",
            "outputs": [],
            "stateMutability": "nonpayable",
            "type": "function"
        },
        {
            "inputs": [
                {
                    "internalType": "address",
                    "name": "from",
                    "type": "address"
                },
                {
                    "internalType": "address",
                    "name": "to",
                    "type": "address"
                },
                {
                    "internalType": "uint256",
                    "name": "tokenId",
                    "type": "uint256"
                },
                {
                    "internalType": "bytes",
                    "name": "_data",
                    "type": "bytes"
                }
            ],
            "name": "safeTransferFrom",
            "outputs": [],
            "stateMutability": "nonpayable",
            "type": "function"
        },
        {
            "inputs": [
                {
                    "internalType": "address",
                    "name": "operator",
                    "type": "address"
                },
                {
                    "internalType": "bool",
                    "name": "approved",
                    "type": "bool"
                }
            ],
            "name": "setApprovalForAll",
            "outputs": [],
            "stateMutability": "nonpayable",
            "type": "function"
        },
        {
            "inputs": [
                {
                    "internalType": "string",
                    "name": "name",
                    "type": "string"
                },
                {
                    "internalType": "string",
                    "name": "record",
                    "type": "string"
                }
            ],
            "name": "setRecord",
            "outputs": [],
            "stateMutability": "nonpayable",
            "type": "function"
        },
        {
            "inputs": [
                {
                    "internalType": "bytes4",
                    "name": "interfaceId",
                    "type": "bytes4"
                }
            ],
            "name": "supportsInterface",
            "outputs": [
                {
                    "internalType": "bool",
                    "name": "",
                    "type": "bool"
                }
            ],
            "stateMutability": "view",
            "type": "function"
        },
        {
            "inputs": [],
            "name": "symbol",
            "outputs": [
                {
                    "internalType": "string",
                    "name": "",
                    "type": "string"
                }
            ],
            "stateMutability": "view",
            "type": "function"
        },
        {
            "inputs": [],
            "name": "tld",
            "outputs": [
                {
                    "internalType": "string",
                    "name": "",
                    "type": "string"
                }
            ],
            "stateMutability": "view",
            "type": "function"
        },
        {
            "inputs": [
                {
                    "internalType": "uint256",
                    "name": "tokenId",
                    "type": "uint256"
                }
            ],
            "name": "tokenURI",
            "outputs": [
                {
                    "internalType": "string",
                    "name": "",
                    "type": "string"
                }
            ],
            "stateMutability": "view",
            "type": "function"
        },
        {
            "inputs": [
                {
                    "internalType": "address",
                    "name": "from",
                    "type": "address"
                },
                {
                    "internalType": "address",
                    "name": "to",
                    "type": "address"
                },
                {
                    "internalType": "uint256",
                    "name": "tokenId",
                    "type": "uint256"
                }
            ],
            "name": "transferFrom",
            "outputs": [],
            "stateMutability": "nonpayable",
            "type": "function"
        }
    ],
    "bytecode": "0x608060405260405180611cc00160405280611c8281526020016200493e611c829139600990805190602001906200003892919062000287565b506040518060400160405280600d81526020017f3c2f746578743e3c2f7376673e00000000000000000000000000000000000000815250600a90805190602001906200008692919062000287565b50604051620065c0380380620065c08339818101604052810190620000ac9190620004d4565b6040518060400160405280601281526020017f4a75747375204e616d65205365727669636500000000000000000000000000008152506040518060400160405280600381526020017f4a4e53000000000000000000000000000000000000000000000000000000000081525081600090805190602001906200013092919062000287565b5080600190805190602001906200014992919062000287565b50505080600890805190602001906200016492919062000287565b50620001b16040518060400160405280601881526020017f2573206e616d652073657276696365206465706c6f796564000000000000000081525082620001b860201b6200150c1760201c565b5062000622565b6200025a8282604051602401620001d192919062000582565b6040516020818303038152906040527f4b5c4277000000000000000000000000000000000000000000000000000000007bffffffffffffffffffffffffffffffffffffffffffffffffffffffff19166020820180517bffffffffffffffffffffffffffffffffffffffffffffffffffffffff83818316178352505050506200025e60201b60201c565b5050565b60008151905060006a636f6e736f6c652e6c6f679050602083016000808483855afa5050505050565b8280546200029590620005ec565b90600052602060002090601f016020900481019282620002b9576000855562000305565b82601f10620002d457805160ff191683800117855562000305565b8280016001018555821562000305579182015b8281111562000304578251825591602001919060010190620002e7565b5b50905062000314919062000318565b5090565b5b808211156200033357600081600090555060010162000319565b5090565b6000604051905090565b600080fd5b600080fd5b600080fd5b600080fd5b6000601f19601f8301169050919050565b7f4e487b7100000000000000000000000000000000000000000000000000000000600052604160045260246000fd5b620003a08262000355565b810181811067ffffffffffffffff82111715620003c257620003c162000366565b5b80604052505050565b6000620003d762000337565b9050620003e5828262000395565b919050565b600067ffffffffffffffff82111562000408576200040762000366565b5b620004138262000355565b9050602081019050919050565b60005b838110156200044057808201518184015260208101905062000423565b8381111562000450576000848401525b50505050565b60006200046d6200046784620003ea565b620003cb565b9050828152602081018484840111156200048c576200048b62000350565b5b6200049984828562000420565b509392505050565b600082601f830112620004b957620004b86200034b565b5b8151620004cb84826020860162000456565b91505092915050565b600060208284031215620004ed57620004ec62000341565b5b600082015167ffffffffffffffff8111156200050e576200050d62000346565b5b6200051c84828501620004a1565b91505092915050565b600081519050919050565b600082825260208201905092915050565b60006200054e8262000525565b6200055a818562000530565b93506200056c81856020860162000420565b620005778162000355565b840191505092915050565b600060408201905081810360008301526200059e818562000541565b90508181036020830152620005b4818462000541565b90509392505050565b7f4e487b7100000000000000000000000000000000000000000000000000000000600052602260045260246000fd5b600060028204905060018216806200060557607f821691505b602082108114156200061c576200061b620005bd565b5b50919050565b61430c80620006326000396000f3fe60806040526004361061012a5760003560e01c80636352211e116100ab578063bf40fac11161006f578063bf40fac114610428578063c1880a9814610465578063c87b56dd1461048e578063e985e9c5146104cb578063f2c298be14610508578063fe2c6198146105245761012a565b80636352211e1461033157806370a082311461036e57806395d89b41146103ab578063a22cb465146103d6578063b88d4fde146103ff5761012a565b806323b872dd116100f257806323b872dd1461023a57806326449235146102635780632d551432146102a057806342842e0e146102cb578063541e771d146102f45761012a565b806301ffc9a71461012f57806306fdde031461016c578063081812fc14610197578063095ea7b3146101d457806311dd8845146101fd575b600080fd5b34801561013b57600080fd5b5061015660048036038101906101519190612952565b610561565b604051610163919061299a565b60405180910390f35b34801561017857600080fd5b50610181610643565b60405161018e9190612a4e565b60405180910390f35b3480156101a357600080fd5b506101be60048036038101906101b99190612aa6565b6106d5565b6040516101cb9190612b14565b60405180910390f35b3480156101e057600080fd5b506101fb60048036038101906101f69190612b5b565b61075a565b005b34801561020957600080fd5b50610224600480360381019061021f9190612c00565b610872565b6040516102319190612a4e565b60405180910390f35b34801561024657600080fd5b50610261600480360381019061025c9190612c4d565b610925565b005b34801561026f57600080fd5b5061028a60048036038101906102859190612dd0565b610985565b6040516102979190612b14565b60405180910390f35b3480156102ac57600080fd5b506102b56109ce565b6040516102c29190612a4e565b60405180910390f35b3480156102d757600080fd5b506102f260048036038101906102ed9190612c4d565b610a5c565b005b34801561030057600080fd5b5061031b60048036038101906103169190612dd0565b610a7c565b6040516103289190612a4e565b60405180910390f35b34801561033d57600080fd5b5061035860048036038101906103539190612aa6565b610b32565b6040516103659190612b14565b60405180910390f35b34801561037a57600080fd5b5061039560048036038101906103909190612e19565b610be4565b6040516103a29190612e55565b60405180910390f35b3480156103b757600080fd5b506103c0610c9c565b6040516103cd9190612a4e565b60405180910390f35b3480156103e257600080fd5b506103fd60048036038101906103f89190612e9c565b610d2e565b005b34801561040b57600080fd5b5061042660048036038101906104219190612f7d565b610d44565b005b34801561043457600080fd5b5061044f600480360381019061044a9190612c00565b610da6565b60405161045c9190612b14565b60405180910390f35b34801561047157600080fd5b5061048c60048036038101906104879190613000565b610df1565b005b34801561049a57600080fd5b506104b560048036038101906104b09190612aa6565b610e9f565b6040516104c29190612a4e565b60405180910390f35b3480156104d757600080fd5b506104f260048036038101906104ed9190613081565b610ff1565b6040516104ff919061299a565b60405180910390f35b610522600480360381019061051d9190612c00565b611085565b005b34801561053057600080fd5b5061054b60048036038101906105469190612c00565b611466565b6040516105589190612e55565b60405180910390f35b60007f80ac58cd000000000000000000000000000000000000000000000000000000007bffffffffffffffffffffffffffffffffffffffffffffffffffffffff1916827bffffffffffffffffffffffffffffffffffffffffffffffffffffffff1916148061062c57507f5b5e139f000000000000000000000000000000000000000000000000000000007bffffffffffffffffffffffffffffffffffffffffffffffffffffffff1916827bffffffffffffffffffffffffffffffffffffffffffffffffffffffff1916145b8061063c575061063b826115a8565b5b9050919050565b606060008054610652906130f0565b80601f016020809104026020016040519081016040528092919081815260200182805461067e906130f0565b80156106cb5780601f106106a0576101008083540402835291602001916106cb565b820191906000526020600020905b8154815290600101906020018083116106ae57829003601f168201915b5050505050905090565b60006106e082611612565b61071f576040517f08c379a000000000000000000000000000000000000000000000000000000000815260040161071690613194565b60405180910390fd5b6004600083815260200190815260200160002060009054906101000a900473ffffffffffffffffffffffffffffffffffffffff169050919050565b600061076582610b32565b90508073ffffffffffffffffffffffffffffffffffffffff168373ffffffffffffffffffffffffffffffffffffffff1614156107d6576040517f08c379a00000000000000000000000000000000000000000000000000000000081526004016107cd90613226565b60405180910390fd5b8073ffffffffffffffffffffffffffffffffffffffff166107f561167e565b73ffffffffffffffffffffffffffffffffffffffff16148061082457506108238161081e61167e565b610ff1565b5b610863576040517f08c379a000000000000000000000000000000000000000000000000000000000815260040161085a906132b8565b60405180910390fd5b61086d8383611686565b505050565b6060600c8383604051610886929190613308565b9081526020016040518091039020805461089f906130f0565b80601f01602080910402602001604051908101604052809291908181526020018280546108cb906130f0565b80156109185780601f106108ed57610100808354040283529160200191610918565b820191906000526020600020905b8154815290600101906020018083116108fb57829003601f168201915b5050505050905092915050565b61093661093061167e565b8261173f565b610975576040517f08c379a000000000000000000000000000000000000000000000000000000000815260040161096c90613393565b60405180910390fd5b61098083838361181d565b505050565b600b818051602081018201805184825260208301602085012081835280955050505050506000915054906101000a900473ffffffffffffffffffffffffffffffffffffffff1681565b600880546109db906130f0565b80601f0160208091040260200160405190810160405280929190818152602001828054610a07906130f0565b8015610a545780601f10610a2957610100808354040283529160200191610a54565b820191906000526020600020905b815481529060010190602001808311610a3757829003601f168201915b505050505081565b610a7783838360405180602001604052806000815250610d44565b505050565b600c818051602081018201805184825260208301602085012081835280955050505050506000915090508054610ab1906130f0565b80601f0160208091040260200160405190810160405280929190818152602001828054610add906130f0565b8015610b2a5780601f10610aff57610100808354040283529160200191610b2a565b820191906000526020600020905b815481529060010190602001808311610b0d57829003601f168201915b505050505081565b6000806002600084815260200190815260200160002060009054906101000a900473ffffffffffffffffffffffffffffffffffffffff169050600073ffffffffffffffffffffffffffffffffffffffff168173ffffffffffffffffffffffffffffffffffffffff161415610bdb576040517f08c379a0000000000000000000000000000000000000000000000000000000008152600401610bd290613425565b60405180910390fd5b80915050919050565b60008073ffffffffffffffffffffffffffffffffffffffff168273ffffffffffffffffffffffffffffffffffffffff161415610c55576040517f08c379a0000000000000000000000000000000000000000000000000000000008152600401610c4c906134b7565b60405180910390fd5b600360008373ffffffffffffffffffffffffffffffffffffffff1673ffffffffffffffffffffffffffffffffffffffff168152602001908152602001600020549050919050565b606060018054610cab906130f0565b80601f0160208091040260200160405190810160405280929190818152602001828054610cd7906130f0565b8015610d245780601f10610cf957610100808354040283529160200191610d24565b820191906000526020600020905b815481529060010190602001808311610d0757829003601f168201915b5050505050905090565b610d40610d3961167e565b8383611a84565b5050565b610d55610d4f61167e565b8361173f565b610d94576040517f08c379a0000000000000000000000000000000000000000000000000000000008152600401610d8b90613393565b60405180910390fd5b610da084848484611bf1565b50505050565b6000600b8383604051610dba929190613308565b908152602001604051809103902060009054906101000a900473ffffffffffffffffffffffffffffffffffffffff16905092915050565b3373ffffffffffffffffffffffffffffffffffffffff16600b8585604051610e1a929190613308565b908152602001604051809103902060009054906101000a900473ffffffffffffffffffffffffffffffffffffffff1673ffffffffffffffffffffffffffffffffffffffff1614610e6957600080fd5b8181600c8686604051610e7d929190613308565b90815260200160405180910390209190610e989291906127bd565b5050505050565b6060610eaa82611612565b610ee9576040517f08c379a0000000000000000000000000000000000000000000000000000000008152600401610ee090613549565b60405180910390fd5b6000600660008481526020019081526020016000208054610f09906130f0565b80601f0160208091040260200160405190810160405280929190818152602001828054610f35906130f0565b8015610f825780601f10610f5757610100808354040283529160200191610f82565b820191906000526020600020905b815481529060010190602001808311610f6557829003601f168201915b505050505090506000610f93611c4d565b9050600081511415610fa9578192505050610fec565b600082511115610fde578082604051602001610fc692919061359a565b60405160208183030381529060405292505050610fec565b610fe784611c64565b925050505b919050565b6000600560008473ffffffffffffffffffffffffffffffffffffffff1673ffffffffffffffffffffffffffffffffffffffff16815260200190815260200160002060008373ffffffffffffffffffffffffffffffffffffffff1673ffffffffffffffffffffffffffffffffffffffff16815260200190815260200160002060009054906101000a900460ff16905092915050565b600073ffffffffffffffffffffffffffffffffffffffff16600b83836040516110af929190613308565b908152602001604051809103902060009054906101000a900473ffffffffffffffffffffffffffffffffffffffff1673ffffffffffffffffffffffffffffffffffffffff16146110fe57600080fd5b600061110a8383611466565b90508034101561114f576040517f08c379a00000000000000000000000000000000000000000000000000000000081526004016111469061360a565b60405180910390fd5b6000838360086040516020016111679392919061370a565b60405160208183030381529060405290506000600982600a6040516020016111919392919061373b565b604051602081830303815290604052905060006111ae6007611d0b565b905060006111ff87878080601f016020809104026020016040519081016040528093929190818152602001838380828437600081840152601f19601f82011690508083019250505050505050611d19565b9050600061120c82611ece565b905061130060405180606001604052806031815260200161422d6031913989898080601f016020809104026020016040519081016040528093929190818152602001838380828437600081840152601f19601f820116905080830192505050505050506008805461127c906130f0565b80601f01602080910402602001604051908101604052809291908181526020018280546112a8906130f0565b80156112f55780601f106112ca576101008083540402835291602001916112f5565b820191906000526020600020905b8154815290600101906020018083116112d857829003601f168201915b50505050508661202f565b60006113368661130f876120d1565b84604051602001611322939291906138e8565b6040516020818303038152906040526120d1565b905060008160405160200161134b9190613991565b604051602081830303815290604052905061137d6040518060600160405280603981526020016141f460399139612269565b6113bc6040518060400160405280600e81526020017f46696e616c20746f6b656e5552490000000000000000000000000000000000008152508261150c565b6113dd60405180606001604052806039815260200161425e60399139612269565b6113e73386612302565b6113f18582612320565b33600b8b8b604051611404929190613308565b908152602001604051809103902060006101000a81548173ffffffffffffffffffffffffffffffffffffffff021916908373ffffffffffffffffffffffffffffffffffffffff16021790555061145a6007612394565b50505050505050505050565b6000806114b684848080601f016020809104026020016040519081016040528093929190818152602001838380828437600081840152601f19601f82011690508083019250505050505050611d19565b9050600081116114c557600080fd5b60038114156114df576706f05b59d3b20000915050611506565b60048114156114f957670429d069189e0000915050611506565b67016345785d8a00009150505b92915050565b6115a482826040516024016115229291906139b3565b6040516020818303038152906040527f4b5c4277000000000000000000000000000000000000000000000000000000007bffffffffffffffffffffffffffffffffffffffffffffffffffffffff19166020820180517bffffffffffffffffffffffffffffffffffffffffffffffffffffffff83818316178352505050506123aa565b5050565b60007f01ffc9a7000000000000000000000000000000000000000000000000000000007bffffffffffffffffffffffffffffffffffffffffffffffffffffffff1916827bffffffffffffffffffffffffffffffffffffffffffffffffffffffff1916149050919050565b60008073ffffffffffffffffffffffffffffffffffffffff166002600084815260200190815260200160002060009054906101000a900473ffffffffffffffffffffffffffffffffffffffff1673ffffffffffffffffffffffffffffffffffffffff1614159050919050565b600033905090565b816004600083815260200190815260200160002060006101000a81548173ffffffffffffffffffffffffffffffffffffffff021916908373ffffffffffffffffffffffffffffffffffffffff160217905550808273ffffffffffffffffffffffffffffffffffffffff166116f983610b32565b73ffffffffffffffffffffffffffffffffffffffff167f8c5be1e5ebec7d5bd14f71427d1e84f3dd0314c0f7b2291e5b200ac8c7c3b92560405160405180910390a45050565b600061174a82611612565b611789576040517f08c379a000000000000000000000000000000000000000000000000000000000815260040161178090613a5c565b60405180910390fd5b600061179483610b32565b90508073ffffffffffffffffffffffffffffffffffffffff168473ffffffffffffffffffffffffffffffffffffffff16148061180357508373ffffffffffffffffffffffffffffffffffffffff166117eb846106d5565b73ffffffffffffffffffffffffffffffffffffffff16145b8061181457506118138185610ff1565b5b91505092915050565b8273ffffffffffffffffffffffffffffffffffffffff1661183d82610b32565b73ffffffffffffffffffffffffffffffffffffffff1614611893576040517f08c379a000000000000000000000000000000000000000000000000000000000815260040161188a90613aee565b60405180910390fd5b600073ffffffffffffffffffffffffffffffffffffffff168273ffffffffffffffffffffffffffffffffffffffff161415611903576040517f08c379a00000000000000000000000000000000000000000000000000000000081526004016118fa90613b80565b60405180910390fd5b61190e8383836123d3565b611919600082611686565b6001600360008573ffffffffffffffffffffffffffffffffffffffff1673ffffffffffffffffffffffffffffffffffffffff16815260200190815260200160002060008282546119699190613bcf565b925050819055506001600360008473ffffffffffffffffffffffffffffffffffffffff1673ffffffffffffffffffffffffffffffffffffffff16815260200190815260200160002060008282546119c09190613c03565b92505081905550816002600083815260200190815260200160002060006101000a81548173ffffffffffffffffffffffffffffffffffffffff021916908373ffffffffffffffffffffffffffffffffffffffff160217905550808273ffffffffffffffffffffffffffffffffffffffff168473ffffffffffffffffffffffffffffffffffffffff167fddf252ad1be2c89b69c2b068fc378daa952ba7f163c4a11628f55a4df523b3ef60405160405180910390a4611a7f8383836123d8565b505050565b8173ffffffffffffffffffffffffffffffffffffffff168373ffffffffffffffffffffffffffffffffffffffff161415611af3576040517f08c379a0000000000000000000000000000000000000000000000000000000008152600401611aea90613ca5565b60405180910390fd5b80600560008573ffffffffffffffffffffffffffffffffffffffff1673ffffffffffffffffffffffffffffffffffffffff16815260200190815260200160002060008473ffffffffffffffffffffffffffffffffffffffff1673ffffffffffffffffffffffffffffffffffffffff16815260200190815260200160002060006101000a81548160ff0219169083151502179055508173ffffffffffffffffffffffffffffffffffffffff168373ffffffffffffffffffffffffffffffffffffffff167f17307eab39ab6107e8899845ad3d59bd9653f200f220920489ca2b5937696c3183604051611be4919061299a565b60405180910390a3505050565b611bfc84848461181d565b611c08848484846123dd565b611c47576040517f08c379a0000000000000000000000000000000000000000000000000000000008152600401611c3e90613d37565b60405180910390fd5b50505050565b606060405180602001604052806000815250905090565b6060611c6f82611612565b611cae576040517f08c379a0000000000000000000000000000000000000000000000000000000008152600401611ca590613dc9565b60405180910390fd5b6000611cb8611c4d565b90506000815111611cd85760405180602001604052806000815250611d03565b80611ce284611ece565b604051602001611cf392919061359a565b6040516020818303038152906040525b915050919050565b600081600001549050919050565b60008060008084519050600092505b80821015611ec3576000858381518110611d4557611d44613de9565b5b602001015160f81c60f81b9050608060f81b817effffffffffffffffffffffffffffffffffffffffffffffffffffffffffffff19161015611d9457600183611d8d9190613c03565b9250611eaf565b60e060f81b817effffffffffffffffffffffffffffffffffffffffffffffffffffffffffffff19161015611dd657600283611dcf9190613c03565b9250611eae565b60f060f81b817effffffffffffffffffffffffffffffffffffffffffffffffffffffffffffff19161015611e1857600383611e119190613c03565b9250611ead565b60f8801b817effffffffffffffffffffffffffffffffffffffffffffffffffffffffffffff19161015611e5957600483611e529190613c03565b9250611eac565b60fc60f81b817effffffffffffffffffffffffffffffffffffffffffffffffffffffffffffff19161015611e9b57600583611e949190613c03565b9250611eab565b600683611ea89190613c03565b92505b5b5b5b5b508280611ebb90613e18565b935050611d28565b829350505050919050565b60606000821415611f16576040518060400160405280600181526020017f3000000000000000000000000000000000000000000000000000000000000000815250905061202a565b600082905060005b60008214611f48578080611f3190613e18565b915050600a82611f419190613e90565b9150611f1e565b60008167ffffffffffffffff811115611f6457611f63612ca5565b5b6040519080825280601f01601f191660200182016040528015611f965781602001600182028036833780820191505090505b5090505b6000851461202357600182611faf9190613bcf565b9150600a85611fbe9190613ec1565b6030611fca9190613c03565b60f81b818381518110611fe057611fdf613de9565b5b60200101907effffffffffffffffffffffffffffffffffffffffffffffffffffffffffffff1916908160001a905350600a8561201c9190613e90565b9450611f9a565b8093505050505b919050565b6120cb848484846040516024016120499493929190613ef2565b6040516020818303038152906040527f9fd009f5000000000000000000000000000000000000000000000000000000007bffffffffffffffffffffffffffffffffffffffffffffffffffffffff19166020820180517bffffffffffffffffffffffffffffffffffffffffffffffffffffffff83818316178352505050506123aa565b50505050565b606060008251905060008114156120fa5760405180602001604052806000815250915050612264565b6000600360028361210b9190613c03565b6121159190613e90565b60046121219190613f4c565b905060006020826121329190613c03565b67ffffffffffffffff81111561214b5761214a612ca5565b5b6040519080825280601f01601f19166020018201604052801561217d5781602001600182028036833780820191505090505b5090506000604051806060016040528060408152602001614297604091399050600181016020830160005b868110156122215760038101905062ffffff818a015116603f8160121c168401518060081b905060ff603f83600c1c1686015116810190508060081b905060ff603f8360061c1686015116810190508060081b905060ff603f831686015116810190508060e01b905080845260048401935050506121a8565b50600386066001811461223b576002811461224b57612256565b613d3d60f01b6002830352612256565b603d60f81b60018303525b508484525050819450505050505b919050565b6122ff8160405160240161227d9190612a4e565b6040516020818303038152906040527f41304fac000000000000000000000000000000000000000000000000000000007bffffffffffffffffffffffffffffffffffffffffffffffffffffffff19166020820180517bffffffffffffffffffffffffffffffffffffffffffffffffffffffff83818316178352505050506123aa565b50565b61231c828260405180602001604052806000815250612565565b5050565b61232982611612565b612368576040517f08c379a000000000000000000000000000000000000000000000000000000000815260040161235f90614018565b60405180910390fd5b8060066000848152602001908152602001600020908051906020019061238f929190612843565b505050565b6001816000016000828254019250508190555050565b60008151905060006a636f6e736f6c652e6c6f679050602083016000808483855afa5050505050565b505050565b505050565b60006123fe8473ffffffffffffffffffffffffffffffffffffffff166125c0565b15612558578373ffffffffffffffffffffffffffffffffffffffff1663150b7a0261242761167e565b8786866040518563ffffffff1660e01b8152600401612449949392919061408d565b6020604051808303816000875af192505050801561248557506040513d601f19601f8201168201806040525081019061248291906140ee565b60015b612508573d80600081146124b5576040519150601f19603f3d011682016040523d82523d6000602084013e6124ba565b606091505b50600081511415612500576040517f08c379a00000000000000000000000000000000000000000000000000000000081526004016124f790613d37565b60405180910390fd5b805181602001fd5b63150b7a0260e01b7bffffffffffffffffffffffffffffffffffffffffffffffffffffffff1916817bffffffffffffffffffffffffffffffffffffffffffffffffffffffff19161491505061255d565b600190505b949350505050565b61256f83836125e3565b61257c60008484846123dd565b6125bb576040517f08c379a00000000000000000000000000000000000000000000000000000000081526004016125b290613d37565b60405180910390fd5b505050565b6000808273ffffffffffffffffffffffffffffffffffffffff163b119050919050565b600073ffffffffffffffffffffffffffffffffffffffff168273ffffffffffffffffffffffffffffffffffffffff161415612653576040517f08c379a000000000000000000000000000000000000000000000000000000000815260040161264a90614167565b60405180910390fd5b61265c81611612565b1561269c576040517f08c379a0000000000000000000000000000000000000000000000000000000008152600401612693906141d3565b60405180910390fd5b6126a8600083836123d3565b6001600360008473ffffffffffffffffffffffffffffffffffffffff1673ffffffffffffffffffffffffffffffffffffffff16815260200190815260200160002060008282546126f89190613c03565b92505081905550816002600083815260200190815260200160002060006101000a81548173ffffffffffffffffffffffffffffffffffffffff021916908373ffffffffffffffffffffffffffffffffffffffff160217905550808273ffffffffffffffffffffffffffffffffffffffff16600073ffffffffffffffffffffffffffffffffffffffff167fddf252ad1be2c89b69c2b068fc378daa952ba7f163c4a11628f55a4df523b3ef60405160405180910390a46127b9600083836123d8565b5050565b8280546127c9906130f0565b90600052602060002090601f0160209004810192826127eb5760008555612832565b82601f1061280457803560ff1916838001178555612832565b82800160010185558215612832579182015b82811115612831578235825591602001919060010190612816565b5b50905061283f91906128c9565b5090565b82805461284f906130f0565b90600052602060002090601f01602090048101928261287157600085556128b8565b82601f1061288a57805160ff19168380011785556128b8565b828001600101855582156128b8579182015b828111156128b757825182559160200191906001019061289c565b5b5090506128c591906128c9565b5090565b5b808211156128e25760008160009055506001016128ca565b5090565b6000604051905090565b600080fd5b600080fd5b60007fffffffff0000000000000000000000000000000000000000000000000000000082169050919050565b61292f816128fa565b811461293a57600080fd5b50565b60008135905061294c81612926565b92915050565b600060208284031215612968576129676128f0565b5b60006129768482850161293d565b91505092915050565b60008115159050919050565b6129948161297f565b82525050565b60006020820190506129af600083018461298b565b92915050565b600081519050919050565b600082825260208201905092915050565b60005b838110156129ef5780820151818401526020810190506129d4565b838111156129fe576000848401525b50505050565b6000601f19601f8301169050919050565b6000612a20826129b5565b612a2a81856129c0565b9350612a3a8185602086016129d1565b612a4381612a04565b840191505092915050565b60006020820190508181036000830152612a688184612a15565b905092915050565b6000819050919050565b612a8381612a70565b8114612a8e57600080fd5b50565b600081359050612aa081612a7a565b92915050565b600060208284031215612abc57612abb6128f0565b5b6000612aca84828501612a91565b91505092915050565b600073ffffffffffffffffffffffffffffffffffffffff82169050919050565b6000612afe82612ad3565b9050919050565b612b0e81612af3565b82525050565b6000602082019050612b296000830184612b05565b92915050565b612b3881612af3565b8114612b4357600080fd5b50565b600081359050612b5581612b2f565b92915050565b60008060408385031215612b7257612b716128f0565b5b6000612b8085828601612b46565b9250506020612b9185828601612a91565b9150509250929050565b600080fd5b600080fd5b600080fd5b60008083601f840112612bc057612bbf612b9b565b5b8235905067ffffffffffffffff811115612bdd57612bdc612ba0565b5b602083019150836001820283011115612bf957612bf8612ba5565b5b9250929050565b60008060208385031215612c1757612c166128f0565b5b600083013567ffffffffffffffff811115612c3557612c346128f5565b5b612c4185828601612baa565b92509250509250929050565b600080600060608486031215612c6657612c656128f0565b5b6000612c7486828701612b46565b9350506020612c8586828701612b46565b9250506040612c9686828701612a91565b9150509250925092565b600080fd5b7f4e487b7100000000000000000000000000000000000000000000000000000000600052604160045260246000fd5b612cdd82612a04565b810181811067ffffffffffffffff82111715612cfc57612cfb612ca5565b5b80604052505050565b6000612d0f6128e6565b9050612d1b8282612cd4565b919050565b600067ffffffffffffffff821115612d3b57612d3a612ca5565b5b612d4482612a04565b9050602081019050919050565b82818337600083830152505050565b6000612d73612d6e84612d20565b612d05565b905082815260208101848484011115612d8f57612d8e612ca0565b5b612d9a848285612d51565b509392505050565b600082601f830112612db757612db6612b9b565b5b8135612dc7848260208601612d60565b91505092915050565b600060208284031215612de657612de56128f0565b5b600082013567ffffffffffffffff811115612e0457612e036128f5565b5b612e1084828501612da2565b91505092915050565b600060208284031215612e2f57612e2e6128f0565b5b6000612e3d84828501612b46565b91505092915050565b612e4f81612a70565b82525050565b6000602082019050612e6a6000830184612e46565b92915050565b612e798161297f565b8114612e8457600080fd5b50565b600081359050612e9681612e70565b92915050565b60008060408385031215612eb357612eb26128f0565b5b6000612ec185828601612b46565b9250506020612ed285828601612e87565b9150509250929050565b600067ffffffffffffffff821115612ef757612ef6612ca5565b5b612f0082612a04565b9050602081019050919050565b6000612f20612f1b84612edc565b612d05565b905082815260208101848484011115612f3c57612f3b612ca0565b5b612f47848285612d51565b509392505050565b600082601f830112612f6457612f63612b9b565b5b8135612f74848260208601612f0d565b91505092915050565b60008060008060808587031215612f9757612f966128f0565b5b6000612fa587828801612b46565b9450506020612fb687828801612b46565b9350506040612fc787828801612a91565b925050606085013567ffffffffffffffff811115612fe857612fe76128f5565b5b612ff487828801612f4f565b91505092959194509250565b6000806000806040858703121561301a576130196128f0565b5b600085013567ffffffffffffffff811115613038576130376128f5565b5b61304487828801612baa565b9450945050602085013567ffffffffffffffff811115613067576130666128f5565b5b61307387828801612baa565b925092505092959194509250565b60008060408385031215613098576130976128f0565b5b60006130a685828601612b46565b92505060206130b785828601612b46565b9150509250929050565b7f4e487b7100000000000000000000000000000000000000000000000000000000600052602260045260246000fd5b6000600282049050600182168061310857607f821691505b6020821081141561311c5761311b6130c1565b5b50919050565b7f4552433732313a20617070726f76656420717565727920666f72206e6f6e657860008201527f697374656e7420746f6b656e0000000000000000000000000000000000000000602082015250565b600061317e602c836129c0565b915061318982613122565b604082019050919050565b600060208201905081810360008301526131ad81613171565b9050919050565b7f4552433732313a20617070726f76616c20746f2063757272656e74206f776e6560008201527f7200000000000000000000000000000000000000000000000000000000000000602082015250565b60006132106021836129c0565b915061321b826131b4565b604082019050919050565b6000602082019050818103600083015261323f81613203565b9050919050565b7f4552433732313a20617070726f76652063616c6c6572206973206e6f74206f7760008201527f6e6572206e6f7220617070726f76656420666f7220616c6c0000000000000000602082015250565b60006132a26038836129c0565b91506132ad82613246565b604082019050919050565b600060208201905081810360008301526132d181613295565b9050919050565b600081905092915050565b60006132ef83856132d8565b93506132fc838584612d51565b82840190509392505050565b60006133158284866132e3565b91508190509392505050565b7f4552433732313a207472616e736665722063616c6c6572206973206e6f74206f60008201527f776e6572206e6f7220617070726f766564000000000000000000000000000000602082015250565b600061337d6031836129c0565b915061338882613321565b604082019050919050565b600060208201905081810360008301526133ac81613370565b9050919050565b7f4552433732313a206f776e657220717565727920666f72206e6f6e657869737460008201527f656e7420746f6b656e0000000000000000000000000000000000000000000000602082015250565b600061340f6029836129c0565b915061341a826133b3565b604082019050919050565b6000602082019050818103600083015261343e81613402565b9050919050565b7f4552433732313a2062616c616e636520717565727920666f7220746865207a6560008201527f726f206164647265737300000000000000000000000000000000000000000000602082015250565b60006134a1602a836129c0565b91506134ac82613445565b604082019050919050565b600060208201905081810360008301526134d081613494565b9050919050565b7f45524337323155524953746f726167653a2055524920717565727920666f722060008201527f6e6f6e6578697374656e7420746f6b656e000000000000000000000000000000602082015250565b60006135336031836129c0565b915061353e826134d7565b604082019050919050565b6000602082019050818103600083015261356281613526565b9050919050565b6000613574826129b5565b61357e81856132d8565b935061358e8185602086016129d1565b80840191505092915050565b60006135a68285613569565b91506135b28284613569565b91508190509392505050565b7f4e6f7420656e6f756768204d6174696320706169640000000000000000000000600082015250565b60006135f46015836129c0565b91506135ff826135be565b602082019050919050565b60006020820190508181036000830152613623816135e7565b9050919050565b7f2e00000000000000000000000000000000000000000000000000000000000000600082015250565b60006136606001836132d8565b915061366b8261362a565b600182019050919050565b60008190508160005260206000209050919050565b60008154613698816130f0565b6136a281866132d8565b945060018216600081146136bd57600181146136ce57613701565b60ff19831686528186019350613701565b6136d785613676565b60005b838110156136f9578154818901526001820191506020810190506136da565b838801955050505b50505092915050565b60006137178285876132e3565b915061372282613653565b915061372e828461368b565b9150819050949350505050565b6000613747828661368b565b91506137538285613569565b915061375f828461368b565b9150819050949350505050565b7f7b226e616d65223a202200000000000000000000000000000000000000000000600082015250565b60006137a2600a836132d8565b91506137ad8261376c565b600a82019050919050565b7f222c20226465736372697074696f6e223a20224120646f6d61696e206f6e207460008201527f6865204a75747375206e616d652073657276696365222c2022696d616765223a60208201527f2022646174613a696d6167652f7376672b786d6c3b6261736536342c00000000604082015250565b600061383a605c836132d8565b9150613845826137b8565b605c82019050919050565b7f222c226c656e677468223a220000000000000000000000000000000000000000600082015250565b6000613886600c836132d8565b915061389182613850565b600c82019050919050565b7f227d000000000000000000000000000000000000000000000000000000000000600082015250565b60006138d26002836132d8565b91506138dd8261389c565b600282019050919050565b60006138f382613795565b91506138ff8286613569565b915061390a8261382d565b91506139168285613569565b915061392182613879565b915061392d8284613569565b9150613938826138c5565b9150819050949350505050565b7f646174613a6170706c69636174696f6e2f6a736f6e3b6261736536342c000000600082015250565b600061397b601d836132d8565b915061398682613945565b601d82019050919050565b600061399c8261396e565b91506139a88284613569565b915081905092915050565b600060408201905081810360008301526139cd8185612a15565b905081810360208301526139e18184612a15565b90509392505050565b7f4552433732313a206f70657261746f7220717565727920666f72206e6f6e657860008201527f697374656e7420746f6b656e0000000000000000000000000000000000000000602082015250565b6000613a46602c836129c0565b9150613a51826139ea565b604082019050919050565b60006020820190508181036000830152613a7581613a39565b9050919050565b7f4552433732313a207472616e736665722066726f6d20696e636f72726563742060008201527f6f776e6572000000000000000000000000000000000000000000000000000000602082015250565b6000613ad86025836129c0565b9150613ae382613a7c565b604082019050919050565b60006020820190508181036000830152613b0781613acb565b9050919050565b7f4552433732313a207472616e7366657220746f20746865207a65726f2061646460008201527f7265737300000000000000000000000000000000000000000000000000000000602082015250565b6000613b6a6024836129c0565b9150613b7582613b0e565b604082019050919050565b60006020820190508181036000830152613b9981613b5d565b9050919050565b7f4e487b7100000000000000000000000000000000000000000000000000000000600052601160045260246000fd5b6000613bda82612a70565b9150613be583612a70565b925082821015613bf857613bf7613ba0565b5b828203905092915050565b6000613c0e82612a70565b9150613c1983612a70565b9250827fffffffffffffffffffffffffffffffffffffffffffffffffffffffffffffffff03821115613c4e57613c4d613ba0565b5b828201905092915050565b7f4552433732313a20617070726f766520746f2063616c6c657200000000000000600082015250565b6000613c8f6019836129c0565b9150613c9a82613c59565b602082019050919050565b60006020820190508181036000830152613cbe81613c82565b9050919050565b7f4552433732313a207472616e7366657220746f206e6f6e20455243373231526560008201527f63656976657220696d706c656d656e7465720000000000000000000000000000602082015250565b6000613d216032836129c0565b9150613d2c82613cc5565b604082019050919050565b60006020820190508181036000830152613d5081613d14565b9050919050565b7f4552433732314d657461646174613a2055524920717565727920666f72206e6f60008201527f6e6578697374656e7420746f6b656e0000000000000000000000000000000000602082015250565b6000613db3602f836129c0565b9150613dbe82613d57565b604082019050919050565b60006020820190508181036000830152613de281613da6565b9050919050565b7f4e487b7100000000000000000000000000000000000000000000000000000000600052603260045260246000fd5b6000613e2382612a70565b91507fffffffffffffffffffffffffffffffffffffffffffffffffffffffffffffffff821415613e5657613e55613ba0565b5b600182019050919050565b7f4e487b7100000000000000000000000000000000000000000000000000000000600052601260045260246000fd5b6000613e9b82612a70565b9150613ea683612a70565b925082613eb657613eb5613e61565b5b828204905092915050565b6000613ecc82612a70565b9150613ed783612a70565b925082613ee757613ee6613e61565b5b828206905092915050565b60006080820190508181036000830152613f0c8187612a15565b90508181036020830152613f208186612a15565b90508181036040830152613f348185612a15565b9050613f436060830184612e46565b95945050505050565b6000613f5782612a70565b9150613f6283612a70565b9250817fffffffffffffffffffffffffffffffffffffffffffffffffffffffffffffffff0483118215151615613f9b57613f9a613ba0565b5b828202905092915050565b7f45524337323155524953746f726167653a2055524920736574206f66206e6f6e60008201527f6578697374656e7420746f6b656e000000000000000000000000000000000000602082015250565b6000614002602e836129c0565b915061400d82613fa6565b604082019050919050565b6000602082019050818103600083015261403181613ff5565b9050919050565b600081519050919050565b600082825260208201905092915050565b600061405f82614038565b6140698185614043565b93506140798185602086016129d1565b61408281612a04565b840191505092915050565b60006080820190506140a26000830187612b05565b6140af6020830186612b05565b6140bc6040830185612e46565b81810360608301526140ce8184614054565b905095945050505050565b6000815190506140e881612926565b92915050565b600060208284031215614104576141036128f0565b5b6000614112848285016140d9565b91505092915050565b7f4552433732313a206d696e7420746f20746865207a65726f2061646472657373600082015250565b60006141516020836129c0565b915061415c8261411b565b602082019050919050565b6000602082019050818103600083015261418081614144565b9050919050565b7f4552433732313a20746f6b656e20616c7265616479206d696e74656400000000600082015250565b60006141bd601c836129c0565b91506141c882614187565b602082019050919050565b600060208201905081810360008301526141ec816141b0565b905091905056fe0a2d2d2d2d2d2d2d2d2d2d2d2d2d2d2d2d2d2d2d2d2d2d2d2d2d2d2d2d2d2d2d2d2d2d2d2d2d2d2d2d2d2d2d2d2d2d2d2d2d2d2d2d2d2d2d2d5265676973746572696e672025732e2573206f6e2074686520636f6e7472616374207769746820746f6b656e49442025642d2d2d2d2d2d2d2d2d2d2d2d2d2d2d2d2d2d2d2d2d2d2d2d2d2d2d2d2d2d2d2d2d2d2d2d2d2d2d2d2d2d2d2d2d2d2d2d2d2d2d2d2d2d2d2d0a4142434445464748494a4b4c4d4e4f505152535455565758595a6162636465666768696a6b6c6d6e6f707172737475767778797a303132333435363738392b2fa2646970667358221220697143317277af10ad4b6b40fe594e38659176599712d5bebee5f137d29d5aa264736f6c634300080a00333c73766720786d6c6e733d22687474703a2f2f7777772e77332e6f72672f323030302f737667222077696474683d2232373022206865696768743d22323730222066696c6c3d226e6f6e65223e3c706174682066696c6c3d2275726c282361292220643d224d302030683237307632373048307a222f3e3c646566733e3c66696c7465722069643d22642220636f6c6f722d696e746572706f6c6174696f6e2d66696c746572733d2273524742222066696c746572556e6974733d227573657253706163654f6e55736522206865696768743d22323930222077696474683d22323930223e3c666544726f70536861646f772064783d2230222064793d22312220737464446576696174696f6e3d22322220666c6f6f642d6f7061636974793d222e323235222077696474683d223230302522206865696768743d2232303025222f3e3c2f66696c7465723e3c2f646566733e3c7061746820643d224d37322e3836332034322e39343961342e33383220342e3338322030203020302d342e33393420306c2d31302e30383120362e3033322d362e383520332e3933342d31302e30383120362e30333261342e33383220342e3338322030203020312d342e33393420306c2d382e3031332d342e37323161342e353220342e35322030203020312d312e3538392d312e36313620342e353420342e35342030203020312d2e3630382d322e313837762d392e333161342e323720342e3237203020302031202e3537322d322e32303820342e323520342e323520302030203120312e3632352d312e3539356c372e3838342d342e353961342e33383220342e33383220302030203120342e33393420306c372e38383420342e353961342e353220342e353220302030203120312e35383920312e36313620342e353420342e3534203020302031202e36303820322e31383776362e3033326c362e38352d342e303635762d362e30333261342e323720342e32372030203020302d2e3537322d322e32303820342e323520342e32352030203020302d312e3632352d312e3539354c34312e3435362032342e353961342e33383220342e3338322030203020302d342e33393420306c2d31342e38363420382e36353561342e323520342e32352030203020302d312e36323520312e35393520342e32373320342e3237332030203020302d2e35373220322e3230387631372e34343161342e323720342e3237203020302030202e35373220322e32303820342e323520342e323520302030203020312e36323520312e3539356c31342e38363420382e36353561342e33383220342e33383220302030203020342e33393420306c31302e3038312d352e39303120362e38352d342e3036352031302e3038312d352e39303161342e33383220342e33383220302030203120342e33393420306c372e38383420342e353961342e353220342e353220302030203120312e35383920312e36313620342e353420342e3534203020302031202e36303820322e31383776392e33313161342e323720342e32372030203020312d2e35373220322e32303820342e323520342e32352030203020312d312e36323520312e3539356c2d372e38383420342e37323161342e33383220342e3338322030203020312d342e33393420306c2d372e3838342d342e353961342e353220342e35322030203020312d312e3538392d312e36313620342e353320342e35332030203020312d2e3630382d322e313837762d362e3033326c2d362e383520342e30363576362e30333261342e323720342e3237203020302030202e35373220322e32303820342e323520342e323520302030203020312e36323520312e3539356c31342e38363420382e36353561342e33383220342e33383220302030203020342e33393420306c31342e3836342d382e36353561342e35343520342e35343520302030203020322e3139382d332e3830335635352e35333861342e323720342e32372030203020302d2e3537322d322e32303820342e323520342e32352030203020302d312e3632352d312e3539356c2d31342e3939332d382e3738367a222066696c6c3d2223303030222f3e3c672066696c6c3d2223363543394646222f3e3c7061746820643d224d313536203138302e3631315631393968346333392e37363520302037322033322e3233352037322037327639483332762d3963302d33392e3736352033322e3233352d37322037322d37326834762d31382e333839632d31372e3233372d382e3138392d32392e3632382d32342e3932342d33312e3639352d34342e37334337302e3438203133352e303538203636203133302e30353220363620313234762d313463302d352e39343620342e3332352d31302e3838322031302d31312e38333456393263302d33302e3932382032352e3037322d35362035362d35367335362032352e30373220353620353676362e31363663352e3637352e39353220313020352e3838382031302031312e383334763134633020362e3035322d342e34382031312e3035382d31302e3330352031312e3838312d322e3036372031392e3830362d31342e3435382033362e3534312d33312e3639352034342e37335a222066696c6c3d2223393038303731222f3e3c67207472616e73666f726d3d227472616e736c61746528333220333629223e3c6d61736b2069643d2262223e3c7061746820643d224d313234203134342e3631315631363368346333392e37363520302037322033322e32333520373220373276394830762d3963302d33392e3736352033322e3233352d37322037322d37326834762d31382e333839632d31372e3233372d382e3138392d32392e3632382d32342e3932342d33312e3639352d34342e37334333382e34382039392e3035382033342039342e30353220333420383856373463302d352e39343620342e3332352d31302e3838322031302d31312e38333456353663302d33302e3932382032352e3037322d35362035362d35367335362032352e30373220353620353676362e31363663352e3637352e39353220313020352e3838382031302031312e383334763134633020362e3035322d342e34382031312e3035382d31302e3330352031312e3838312d322e3036372031392e3830362d31342e3435382033362e3534312d33312e3639352034342e37335a222066696c6c3d2223666666222f3e3c2f6d61736b3e3c70617468206d61736b3d2275726c282362292220643d224d31353620373976323363302033302e3932382d32352e3037322035362d3536203536732d35362d32352e3037322d35362d353656373976313563302033302e3932382032352e3037322035362035362035367335362d32352e3037322035362d35365637395a222066696c6c3d2223303030222066696c6c2d6f7061636974793d222e31222f3e3c2f673e3c67207472616e73666f726d3d227472616e736c61746528302031373029223e3c6d61736b2069643d2263223e3c7061746820643d224d3136352e39362032392e3239356333362e39373620332e30332036362e30342033342036362e30342037312e37353756313130483332762d382e39343863302d33382e312032392e3539322d36392e3238372036372e3034352d37312e3833322d2e30332e3337332d2e3034352e37352d2e30343520312e31323820302031312e3836332031342e3939382032312e34382033332e352032312e34382031382e35303220302033332e352d392e3631372033332e352d32312e343820302d2e3335332d2e3031332d2e3730342d2e30342d312e3035335a22207472616e73666f726d3d227472616e736c617465282d3932202d3429222066696c6c3d2223666666222f3e3c2f6d61736b3e3c706174682066696c6c3d22233236324533332220643d224d3136352e39362032392e3239356333362e39373620332e30332036362e30342033342036362e30342037312e37353756313130483332762d382e39343863302d33382e312032392e3539322d36392e3238372036372e3034352d37312e3833322d2e30332e3337332d2e3034352e37352d2e30343520312e31323820302031312e3836332031342e3939382032312e34382033332e352032312e34382031382e35303220302033332e352d392e3631372033332e352d32312e343820302d2e3335332d2e3031332d2e3730342d2e30342d312e3035335a222f3e3c656c6c69707365207472616e73666f726d3d227472616e736c617465283932203429222066696c6c2d6f7061636974793d222e3136222066696c6c3d2223303030222066696c6c2d72756c653d226576656e6f646422206d61736b3d2275726c28236329222063783d2234302e35222063793d2232372e383438222072783d2233392e363335222072793d2232362e393134222f3e3c2f673e3c706174682066696c6c2d6f7061636974793d222e36222066696c6c3d22233030302220643d224d39332e3136203131322e34343763312e3834372d332e37393720362e3030342d362e3434372031302e3833382d362e34343720342e383136203020382e39363120322e36332031302e38313720362e3430372e35353220312e3132322d2e32333320322e30342d312e30323420312e33362d322e3435312d322e3130372d352e3933322d332e3432332d392e3739332d332e3432332d332e373420302d372e31323420312e3233352d392e353620332e3232382d2e3839312e3732382d312e3831382d2e3031342d312e3237382d312e3132355a6d3537203063312e3834372d332e37393720362e3030342d362e3434372031302e3833382d362e34343720342e383136203020382e39363120322e36332031302e38313720362e3430372e35353220312e3132322d2e32333320322e30342d312e30323420312e33362d322e3435312d322e3130372d352e3933322d332e3432332d392e3739332d332e3432332d332e373420302d372e31323420312e3233352d392e353620332e3232382d2e3839312e3732382d312e3831382d2e3031342d312e3237382d312e3132355a6d2d32392e3330332d31382e32313963302d2e30303920302d2e303039203020306d2d32372e32372d342e333336632d322e3334332e3433382d342e3520312e3839362d352e34333520342e3230372d2e3335312e3836382d2e373620322e3832352d2e34343420332e3730382e31322e3333362e3332352e32393420312e3234382e32333620312e3638382d2e31303620332e3937372d322e333820352e3739322d322e37383720322e3532372d2e35363620352e3233352d2e31343120372e3734382e34333220342e3331352e39383520392e393920342e312031342e343520322e3438322e3333322d2e313220342e3637352d332e32343720332e3432332d332e3839332d2e3434352d2e33372d332e3233322d2e3139322d332e3734372d2e3237382d322e3339342d2e3430322d342e3839322d312e3036342d372e3234392d312e3637322d352e31342d312e3332372d31302e3430362d332e3434372d31352e3738372d322e3433356d35322e34393620342e333138632d2e3030322d2e30312d2e3030322d2e3031203020306d32372e3333322d342e33313963322e3334322e34333820342e3520312e38393620352e34333420342e3230372e3335312e3836382e373620322e3832352e34343420332e3730382d2e31322e3333362d2e3332352e3239342d312e3234382e3233362d312e3638382d2e3130362d332e3937372d322e33382d352e3739322d322e3738372d322e3532372d2e3536362d352e3233352d2e3134312d372e3734382e3433322d342e3331352e3938352d392e393920342e312d31342e343520322e3438322d2e3333322d2e31322d342e3637352d332e3234372d332e3432332d332e3839332e3434352d2e333720332e3233322d2e31393220332e3734372d2e32373820322e3339342d2e34303220342e3839322d312e30363420372e3234392d312e36373220352e31342d312e3332362031302e3430362d332e3434362031352e3738372d322e343334222f3e3c7061746820643d224d31323020313330633020342e34313820352e333733203820313220387331322d332e3538322031322d38222066696c6c3d22233030303030222066696c6c2d6f7061636974793d222e3136222f3e3c726563742066696c6c2d6f7061636974793d222e37222066696c6c3d2223303030222066696c6c2d72756c653d226576656e6f64642220783d2234322220793d223138222077696474683d22323422206865696768743d2236222072783d223322207472616e73666f726d3d227472616e736c6174652837382031333429222f3e3c672f3e3c706174682066696c6c3d2223324331423138222066696c6c2d72756c653d226576656e6f64642220643d224d3131342e3138203134392e37333763322e3138332d312e3633322031352e3232372d322e3235382031372e3537382d332e3634382e3733342d2e34333420312e3330332d2e38373320312e3734322d312e3330392e3433392e34333620312e3030392e38373520312e37343220312e333120322e33353120312e3338392031352e33393520322e3031352031372e35373820332e36343720322e323120312e36353420332e38323420352e34343820332e36343720382e3431342d2e32313220332e35362d342e3130362031322e3035322d31332e3739352031332e30332d322e3131342d322e3335332d352e3433352d332e38372d392e3137322d332e38372d332e37333720302d372e30353820312e3531372d392e31373220332e38372d392e36392d2e3937382d31332e3538332d392e34372d31332e3739352d31332e30332d2e3137362d322e39363620312e3433372d362e373620332e3634372d382e3431346d2e3636352031372e3136342e3031372e3030372d2e3031372d2e3030376d37392e3031382d33382e393136632d2e3338392d352e3935352d312e3538352d31312e3833332d322e3632392d31372e3639392d2e3238312d312e3537392d312e38312d31322e3238362d322e352d31322e3238362d2e32333220392e31312d312e3033322031382e30382d322e3036342032372e31342d2e33303920322e3730382d2e36333220352e3431362d2e38343520382e3133342d2e31373120322e3139362e31333520342e3834382d2e33393720362e3937322d2e36373920322e3730362d342e303820352e3233322d362e37323520362e3136352d362e3620322e3332362d31322e3130352d372e3330332d31372e3734322d31302e31322d372e3331382d332e3635362d31392e3839372d342e3532372d32372e33382e3233392d372e3634352d342e3736362d32302e3232342d332e3839352d32372e3534322d2e3233392d352e36333720322e3831372d31312e3134322031322e3434362d31372e3734322031302e31322d322e3634352d2e3933332d362e3034372d332e3435392d362e3732352d362e3136352d2e3533322d322e3132342d2e3232362d342e3737362d2e3339372d362e3937322d2e3231332d322e3731382d2e3533362d352e3432362d2e3834352d382e3133352d312e3033322d392e3035392d312e3833332d31382e3032392d322e3036352d32372e3133392d2e36383920302d322e3231382031302e3730372d322e352031322e3238362d312e30343320352e3836362d322e32342031312e3734342d322e3632372031372e372d2e3420362e3131392e3037372031322e31383120312e3333322031382e313737613136352e3434203136352e343420302030203020322e30343920382e353431632e38333420332e3134332d2e333220392e3236322e3035332031322e3438382e37303720362e31303420332e3538322031382e30303820362e3831312032332e32353920312e35363120322e35333820332e333920342e31323320352e34333320362e31363820312e39363720312e393720322e37383820352e30323120342e393120372e31313820332e39353620332e39303820392e373220362e3233342031352e363420362e38303620352e33313120342e3530372031342e313420372e3435372032342e31333420372e34353720392e39393520302031382e3832332d322e39352032342e3133352d372e34353720352e3931392d2e3537322031312e3638332d322e3839382031352e36342d362e38303620322e3132312d322e30393720322e3934322d352e31343920342e3930392d372e31313820322e3034322d322e30343520332e3837322d332e363320352e3433332d362e31363820332e3232392d352e32353120362e3130342d31372e31353520362e38312d32332e3235392e3337342d332e3232362d2e37382d392e3334352e3035342d31322e3438382e37352d322e38323820312e34352d352e36373620322e30352d382e353420312e3235342d352e39393720312e37332d31322e303620312e3333322d31382e3137395a222f3e3c706174682066696c6c3d22233030302220643d224d3133332039382e313131632d31312e30333720302d31322e36332d392e3038342d33352e33332d31302e33372d32322e3638332d312e3032342d32392e38353420352e3730382d32392e3839332031302e3336392e30333720342e3239332d312e3132382031352e34352031332e3538392032382e3531392031342e3737322031352e3531322032392e3930352031302e3235322033352e333320352e31383520352e3433382d322e3334312031312e3634342d32332e3335342031362e3330342d32332e33333420342e36362e3032322031302e3836352032302e3939322031362e3330362032332e33333420352e34323420352e3036372032302e3535372031302e3332372033352e33332d352e3138352031342e3731362d31332e3036392031332e35352d32342e3232362031332e3538382d32382e3531392d2e30342d342e3636322d372e32312d31312e3339342d32392e3839352d31302e3337433134352e36332038392e303237203134342e3033372039382e3131203133332039382e31315a222f3e3c706174682066696c6c3d22233646333833422220643d224d3132322e3133203130382e343831632e33382d372e3635382d31322e3931342d31352e3833392d32372e3137372d31352e3535352d31342e3235362e3239392d31362e31313120392e3435332d31362e3330362031322e3936332d2e33343920382e31333320382e3336372032362e3431352032342e3435392032352e3932362031362e3039312d2e35312031382e3830332d31382e32382031392e3032332d32332e3333345a6d32322e3531372030632d2e33382d372e3635382031322e3931342d31352e3833392032372e3137372d31352e3535352031342e3235352e3239392031362e313120392e3435332031362e3330352031322e3936332e333520382e3133332d382e3336372032362e3431352d32342e3435382032352e3932362d31362e3039322d2e35312d31382e3830342d31382e32382d31392e3032342d32332e3333345a222f3e3c646566733e3c6c696e6561724772616469656e742069643d2261222078313d2230222079313d2230222078323d22323730222079323d2232373022206772616469656e74556e6974733d227573657253706163654f6e557365223e3c73746f702073746f702d636f6c6f723d22726564222f3e3c73746f70206f66667365743d222e37222f3e3c2f6c696e6561724772616469656e743e3c2f646566733e3c7465787420783d223130342220793d223235302220666f6e742d73697a653d223134222066696c6c3d2223443030222066696c7465723d2275726c282364292220666f6e742d66616d696c793d22506c7573204a616b617274612053616e732c44656a6156752053616e732c4e6f746f20436f6c6f7220456d6f6a692c4170706c6520436f6c6f7220456d6f6a692c73616e732d73657269662220666f6e742d7765696768743d22626f6c64223e",
    "linkReferences": {},
    "deployedLinkReferences": {}
}